:040000000A160B29A8
:10000800FF00030E8301031797000A0896008A0170
:100018000B1D1B2883160313E80A0319E90A831228
:100028000317940A0319950A0B11DA308100160890
:0C0038008A00170E8300FF0E7F0E0900E7
:06004400000000000800AE
:0E004A00213083120313FD00FD0B292808004E
:100058000F3083120313FC004730FD00FD0B3228DC
:0A006800FC0B322800000000080025
:1000720083120317BC1B3F288611402886153C1BA0
:100082004428061145280615BC1A492886104A2814
:1000920086143C1A4E2806104F28061483160313A2
:1000A2006A185628831206165828831206128616D4
:1000B200222086120317BC19602886116128861532
:1000C2003C196528061166280615BC186A28861090
:1000D2006B2886143C186F280610702806148316A5
:1000E20003136A18772883120616792883120612D8
:1000F20086162220861283166A1C81282C208228CA
:0401020025200800AC
:10010600831603136A10831203173B08BC003920B9
:0601160083166A140800C4
:10011C00710DF80DF90D7408F8027508031C750FB4
:10012C00F902F00DF10D0F30FC00710DF80DF90D09
:10013C007408701CA728F8027508031C750FF902C7
:10014C00AC28F80775080318750FF907F00DF10DB9
:10015C00FC0B9B287018B8287408F807750803184E
:08016C00750FF90700000800FF
:10017400831603131419C8281F301105F1007108E0
:10018400003A031DC8280130F000C928F001080016
:10019400023083120313FC004930FD00FD0BD0280C
:0A01A400FC0BD0280000000008004A
:1001AE00333083120313FD00FD0BDB28000000002B
:0201BE00080037
:1001C000831203137408003A031DEF287508003AE0
:1001D000031DEF28FF30F0007F30F1004829831223
:1001E0000313FD01F901F8017108700403190034CB
:1001F00071087506FA00FA1BFD09FB01F51F0529B8
:10020000F409F509F40A0319F50AF11F0C29F0099C
:10021000F109F00A0319F10A71087504FA00FA1BD2
:1002200021298E207B183429FD1F0034F009F109A3
:10023000F00A0319F10AF809F909F80A0319F90A89
:100240000034F51F3029F11B2C297108F9007008C2
:10025000F800F101F0011429F101F001F00A003475
:10026000F109F009FB0A1129F80A0319F90A7408BF
:100270007802031D142975087902031D1429F90158
:10028000F801F00A0319F10AF11F14290000FF34E4
:02029000080064
:1002920083120313F8010830FC00700DF80D740886
:1002A200F80203185629F8070310F00DFC0B4E292B
:0202B200080042
:1002B400831203138C118316911583128C196329ED
:1002C4005F291308F10003173508003A031D6E294E
:1002D4008316031391167129831603139112831243
:1002E4008C118316111683128C19792975297108BA
:0402F400F00008000E
:1002F80083120317B501B6013608123C031D86297F
:1003080035088E3C031C9329BA20700803198D29DF
:10031800932983120317B50A0319B60A8029831291
:10032800031712303602031D9B298F303502031C38
:10033800A0297B30F000A729831603131114111C80
:08034800A629A329F001080019
:1003500083120313FB01FA01F9018030F800F10C5C
:10036000F00C031CBC297408F90775080318750FF5
:10037000FA070318FB0A0310F01FC4297408FA07D0
:1003800075080318750FFB07FB0CFA0CF90CF80C39
:10039000031CAF297B08F3007A08F2007908F1000A
:0603A0007808F0000800DF
:1003A600831203136108620403193C2A03173508F4
:1003B60083160313C200831203173608831603132A
:1003C600C3000313003083126C06031DEC290130B1
:1003D6006B06031D1C2A6E0803171502031DF72959
:1003E60003136D0803171402031C1C2A94019501BC
:1003F6000313EB01EC0183160711831287018316A1
:100406004208F1004308F2000130C202031CC30394
:100416008030F000803072067002031D142A7108C5
:10042600003C031C1B2A0130C2000030C3003C2ADA
:100436003B2A0313003083126C06031D242A003066
:100446006B06031D3B2A013003171502031D2D2AD7
:1004560096301402031C3B2A9401950101300313C4
:10046600EB000030EC00831607110430831287007E
:04047600E42908006D
:10047A00831203137008F100F0010830FC007108C0
:10048A00F40C03184C2AFC0B452AF1010034031022
:10049A00512AF40C0318F107F10CF00CFC0B4E2A4C
:0204AA00080048
:1004AC0083120313F801F9011030FC00710DF80DE3
:1004BC00F90D7408F8027508031C750FF90203187E
:1004CC006E2A7408F80775080318750FF9070310DE
:0A04DC00F00DF10DFC0B5C2A080086
:1004E600852A803083120317B500982AC030B500DC
:1004F600982A9430B500982AD430B500982A8030CE
:10050600B500982A831203173508013A0319742A8D
:100516003508023A0319792A3508033A03197C2A61
:100526003508043A03197F2A822A3603F000350873
:10053600F0077008B5007008BC00392083166A10F1
:1005460083120317B8013808370784000008031917
:10055600B62A3808370784000008BB0083208312B8
:0E0566000317B80AA62A831603136A140800A6
:10057400831203138C110317350803139300831696
:10058400141DC52AC12A83128C19C92AC52A8316A7
:10059400111BCE2AF001D12A11150230F0000800F7
:1005A400831203173608F1000130F00071080319B3
:1005B400DF2AF00D7010FF3ED92A7008BA007009C6
:1005C400B90035088400B801B7013708073C031C9B
:1005D4000C2B3908800584173908800522203A0835
:1005E4008004222084133A080005F0000319072B25
:1005F4003708F1000130F00071080319052BF00DE4
:100604007010FF3EFF2A7008B80425202520031728
:0A061400B70AE72A3808F0000800D2
:10061E00831203173608F1000130F0007108031938
:10062E001C2BF00D7010FF3E162B7008B800F00951
:10063E003508840070088005841770088005CA206C
:10064E000317380880048413D720031738080005D1
:10065E00B7003708003A013003190030B700CA203E
:08066E0003173708F000080033
:0806760083160313111508009F
:10067E0083120313FD01F801700803190034740688
:10068E00FA00FA1BFD09FB01F41F4F2BF409F40AC3
:10069E00F01F532BF009F00A70087404FA00FA1BCD
:1006AE00772B7408F802F00D700DF80D7408F8072A
:1006BE00F00D0630FC00700DF80D74087018F8027D
:1006CE00701CF807F00DFC0B622B701CF8077B18E2
:1006DE00852BFD1F0034F009F00AF809F80A0034E2
:1006EE00F41F822BF01B7F2B7008F800F001702B8B
:1006FE00F001F00A0034F009FB0A582BF80A7408CE
:10070E007802031D702BF801F00AF01F702BFF34D6
:02071E000800D1
:10072000A22B803083120317B500B52BC030B50063
:10073000B52B9430B500B52BD430B500B52B803037
:10074000B500B52B831203173508013A0319912B15
:100750003508023A0319962B3508033A0319992BE9
:100760003508043A03199C2B9F2B3603F0003508FB
:10077000F0077008B500831603136A14700883121B
:100780000317BC00392083166A1083120317370839
:0A079000BC00392083166A1408002B
:10079A00831203173608F1000130F00071080319BB
:1007AA00DA2BF00D7010FF3ED42B7008BA00F00956
:1007BA007008B90035088400700880058417B801EC
:1007CA003808073C031C002C3808F0003708F100F1
:1007DA0070080319F42BF10CF113FF3EEE2B3908C4
:1007EA008005711CFA2B3A088004D72003173A08AF
:0E07FA008004B80AE52B841325202520080072
:0E080800831603139114911C0A2C072C080070
:100816007C21D03083120317B500BA220830831228
:100826000317B500BA2283120317AF01B001803057
:100836003006F00080302E067002031D242C2D0891
:100846002F020318322C2C0884000008B500BA22A7
:1008560083120317AC0AAF0A0319B00A1A2C3B23FA
:02086600080088
:1008680083120317AD1F382C2C08F0002D08F10057
:10087800F10CF00CF113711BF1177008AE00643025
:10088800F400492170080319532C6430F40003174D
:100898002E08F000492170080317AF00552C0317E4
:1008A800AF010A30F4002E08F00049210A30F400A4
:1008B80049217808F00070080317B0000A30F400E6
:1008C8002E08F00049217808F00070080317B100DD
:1008D8000330F2002C08F0002D08F100720803190B
:1008E8007A2CF00DF10D7010FF3E732C0F30F005CF
:1008F8000030F1057130F4000230F500A821E8302D
:10090800F4000330F500562270080317B200E830EF
:10091800F0000330F1002F08F400F501A821700859
:100928000317B3007108B4006430F0003008F40015
:100938003D2270080317B30771080318013EB40776
:100948000A30F0003108F4003D2203173308F0079D
:1009580034080318013EF1073208F0070318F10ABA
:02096800080085
:10096A007030831203171005F2007208F000F00CC1
:10097A00F013F00CF013F00CF013F00CF0130A3033
:10098A00F4003D220F3003171005F10071087007BB
:10099A009000F030831603136F05F2007208F0001E
:1009AA00F00CF013F00CF013F00CF013F00CF01341
:1009BA000A30F4003D220F3083166F05F1007108EA
:1009CA00F0077008EF0070088312D50030308316E4
:1009DA006D05F2007208F000F00CF013F00CF01341
:1009EA00F00CF013F00CF0130A30F4003D220F3033
:1009FA0083166D05F1007108F0077008ED007008A4
:100A0A008312D40007308316EE05F03083120317E1
:100A1A001205F2007208F000F00CF013F00CF0135B
:100A2A00F00CF013F00CF0130A30F4003D220F30F2
:100A3A0003171205F10071087007920010301305B0
:100A4A00F2007208F000F00CF013F00CF013F00C46
:100A5A00F013F00CF0130A30F4003D220F300317A4
:100A6A001305F100710870079300F0301105F200C8
:100A7A007208F000F00CF013F00CF013F00CF01305
:100A8A00F00CF0130A30F4003D220F300317110561
:0A0A9A00F1007108700791000800D8
:100AA40083120313610862040319B22D00306C062B
:100AB400031D5E2D01306B06031D942D6E08031774
:100AC4001502031D692D03136D0803171402031C7B
:100AD400942D940195010313EB01EC018316071186
:100AE4008312870183164208F1004308F2000130A3
:100AF400C202031CC3038030F0008030720670020F
:100B0400031D862D7108003C031C932D0130C20087
:100B14000030C30083126908ED076A080318013E18
:100B2400EE07B22D031300306C06031D9B2D00301D
:100B34006B06031DB22D013003171502031DA42DEE
:100B440096301402031CB22D940195010130031355
:100B5400EB000030EC008316071104308312870089
:020B6400080087
:100B6600013083120313E1000030E2001E30ED0075
:060B76000030EE00080053
:100B7C00831203172C08B5000130B600B130B70052
:040B8C0073220800C8
:100B9000643083120313F4000030F50003172C08AF
:100BA000F0002D08F100E020700871040319EC2D0D
:100BB0006F080317AE006430F4000030F5002C0815
:100BC000F0002D08F100E0203030F00703172E0868
:100BD000840070088000F12D03136F08840030300A
:100BE000800003136F0A0317AE000A30F4000030D0
:100BF000F5002C08F0002D08F100E0200A30F40088
:100C00000030F500E0207808F0007908F10030307D
:100C1000F00703172E0884007008800002300313C9
:100C20006F0784002E30800003306F070317AE007B
:100C30000A30F4000030F5002C08F0002D08F10017
:100C4000E0207808F0007908F1003030F007031751
:100C50002E08840070088000043003136F0784009E
:080C600080016F08F00008009C
:100C6800053083120317B5000530B6000F23053091
:100C7800B5000530B600CC30B700CD2305300317DA
:100C8800B5000530B6004430B700CD238530FD00EF
:100C9800FD0B4C2E05300317B5000530B6000F23A9
:100CA8000530B5000530B600CC30B700CD2305308F
:100CB8000317B5000530B600BE30B700CD230530A8
:100CC8000317B5000530B600D22270080313C3001D
:100CD80005300317B5000530B600D222700803139B
:100CE800D10005300317B5000530B600D2227008D0
:100CF8000313D00005300317B5000530B600D22223
:100D080070080313D20005300317B5000530B6008C
:100D1800D22270080313D3005108F100F0014308F0
:080D2800F0070318F10A0800AE
:100D300083120317AD1FA82E03136F0884002D30F4
:100D400080000317AC09AD09AC0A0319AD0AAD2E3A
:100D500003136F0884002B30800003172C08F00069
:100D60002D08F100F10CF00CF1137008AE006430A6
:100D7000F400492170080319CD2E6F0A0317AF0044
:100D80006430F4002E08F00049213030F0070317DA
:100D90002F08840070088000D22E03136F0A84008D
:100DA00020308000031302306F070317AF000A30B2
:100DB000F4002E08F00049210A30F4004921780897
:100DC000F0003030F00703172F088400700880000F
:100DD000033003136F070317AF000A30F4002E0827
:100DE000F00049217808F0003030F00703172F0891
:100DF000840070088000043003136F0784002E30D5
:100E0000800003172C08F0002D08F100F00DF10D03
:100E10007010F00DF10D7010F00DF10D70100F301D
:100E2000F0050030F1057130F4000230F500A82122
:100E300005306F070317AF00E830F4000330F5000A
:100E400056223030F00703172F0884007008800006
:0C0E5000063003136F07840080010800C7
:100E5C00831203136F080317AD000A30F4002C083B
:100E6C00F0003F233030F00703172D088400700882
:100E7C00800003136F0A0317AD000A30F4002C082E
:100E8C00F0003F237808F0003030F00703172D08EE
:100E9C00840070088000023003136F078400800107
:060EAC006F08F0000800D1
:100EB200013083120313E1000030E2001E30ED0026
:100EC2000030EE000A300317B5000030B600D3211F
:0A0ED20083120313E101E20108009E
:100EDC007C21D03083120317B500BA22831203177A
:100EEC00B501BA220424D13083120317B500BA22FB
:100EFC00013083120317B5005A21700803179000B4
:100F0C000130B5005A2170088316EF007008831267
:100F1C00D50001300317B5005A2170088316ED0077
:100F2C0070088312D40001300317B5005A217008E1
:100F3C008316EE00013083120317B5005A21700896
:100F4C00031792000130B5005A2170080317930063
:100F5C00B5015A217008031791003B235430F0005F
:020F6C0008007B
:100F6E00643083120317AC000430AD000030AE00C5
:100F7E000B24023083120317B5000130B6000313A1
:0A0F8E0060080317B7007322080083
:0E0F98008312031719088A0018088200080047
:100FA6006E27700883120317A700B5242308AC0028
:100FB6002408AD002508AE002608AF008A150020DB
:080FC6008A112708F000080061
:100FCE0083160313141394130716871538308312E0
:040FDE009400080073
:100FE200CC278A110A128000840A980A0319990AE6
:080FF200F003031DF12F0800BC
:10100000831203172C08B5002E08B6000A30F4002E
:10101000831603136D08F0008A1149218A153030B8
:1010200070070317B7008A1190238A1583120317DC
:10103000AE0A0319AF0A2C08B5002E08B6000A3014
:10104000F400831603136D08F0008A1149218A15F4
:101050007808F000303070070317B7008A1190232A
:101060008A1583120317AE0A0319AF0A2C08B500BC
:101070002E08B6003A30B7008A1190238A158312E1
:101080000317AE0A0319AF0A2C08B5002E08B600E4
:101090000A30F400831603136F08F0008A11492107
:1010A0008A15303070070317B7008A1190238A150C
:1010B00083120317AE0A0319AF0A2C08B5002E08D5
:1010C000B6000A30F400831603136F08F0008A118B
:1010D00049218A157808F000303070070317B700EF
:1010E0008A1190238A1583120317AE0A0319AF0AD7
:1010F0002C08B5002E08B6003A30B7008A119023AC
:101100008A1583120317AE0A0319AF0A2C08B5001B
:101110002E08B6000A30F4001008F0008A114921A8
:101120008A15303070070317B7008A1190238A158B
:1011300083120317AE0A0319AF0A2C08B5002E0854
:10114000B6000A30F4001008F0008A1149218A150F
:101150007808F000303070070317B7008A11902329
:0E1160008A1583120317AE0A0319AF0A08009E
:10116E00831203172508F0002608F100F00DF10D8B
:10117E0070107008643EAB00250AF0003030F007A6
:10118E0003136F088400700880006F0A84003A30E1
:10119E00800002306F078400800103172708AC001F
:1011AE002808AD008A11BE258A1583120317270859
:1011BE00B5002908B600031368080317B7008A1193
:1011CE0073228A15831203172708B50005302907E5
:1011DE00B60003136F080317B7008A1173228A151E
:1011EE00831203172B0884000008AC008A112E27E7
:1011FE008A1570080317B7002708B50005302907B0
:10120E00B6000330B6078A1173228A1583120317AC
:10121E002708B50005302907B6000530B6070313B9
:10122E0063080317B7008A1173228A1583120317F6
:10123E002B0A84000008AC008A112E278A1570082C
:10124E000317B7002708B50005302907B60006308A
:0A125E00B6078A1173228A150800F2
:101268008A11B3258A151E30ED000030EE000130DA
:10127800E9000030EA008030F00080306E0670022D
:10128800031D48296D083C3C031C54298A1152252A
:101298008A15023083120313E9000030EA003F295F
:1012A8001E300317B5000030B6008A11D3218A1505
:1012B8008030831203136E06F00080307002031D25
:1012C80067291E306D02031C73298A1152258A155D
:1012D800FE3083120313E900FF30EA005C291E3058
:1012E8000317B5000030B6008A11D3218A15803063
:1012F80083120313F00080306E067002031D8629E6
:101308006D083C3C031C92298A1152258A1502302B
:1013180083120313E9000030EA007B291E3003170B
:10132800B5000030B6008A11D3218A1580308312A7
:1013380003136E06F00080307002031DA5291E30CD
:101348006D02031CB1298A1152258A15FE308312B9
:101358000313E900FF30EA009A2928300317B50083
:101368000030B6008A11D3218A158A1159278A15A7
:0213780008006B
:10137A00643083120317A7002308AC002408AD00C9
:10138A008A11BE258A15831203172308B50025087A
:10139A00B600031368080317B7008A1173228A1567
:1013AA00053083120317A5070318A60AA801A90185
:1013BA0080302906F00080307002031DE6290230D1
:1013CA0028020318272A270884000008AC008A117B
:1013DA002E278A1570080317B7002308B5002508B9
:1013EA00B6008A1173228A15831203172308B500DF
:1013FA0002302507B600031363080317B7008A11E2
:10140A0073228A1583120317270A84000008AC0086
:10141A008A112E278A1570080317B7002308B5000A
:10142A0003302507B6008A1173228A150630831203
:10143A000317A5070318A60AA80A0319A90A02305E
:06144A00A707DD290800E0
:101450000030831603134C06031D302A0A304B0656
:10146000031D622A831203172308B5002508B6005E
:10147000C630B7008A1173228A15440883120317F5
:10148000AC0083160313450883120317AD008A11BD
:10149000C8258A1570080317B7002308B500043063
:1014A0002507B6008A1173228A15831203172308B1
:1014B000B50008302507B600CD30B7008A11732279
:1014C0008A15E12A00304C06031D682A0B304B06B2
:1014D000031D9A2A831203172308B5002508B600B6
:1014E000DF30B7008A1173228A155D088312031753
:1014F000AC00831603135E0883120317AD008A1134
:10150000C8258A1570080317B7002308B5000430F2
:101510002507B6008A1173228A1583120317230840
:10152000B50008302507B600D530B7008A11732200
:101530008A15E12A831203172308B5002508B6008F
:101540004830B7008A1173228A15440883120317A2
:10155000AC0083160313450883120317AD008A11EC
:10156000C8258A1570080317B7002308B500053091
:101570002507B6008A1173228A15831203172308E0
:10158000B50009302507B6004E30B7008A11732226
:101590008A155D0883120317AC00831603135E08D7
:1015A00083120317AD008A11C8258A157008031726
:1015B000B7002308B5000B302507B6008A11732247
:0415C0008A15080080
:1015C40083120317230884000008F10071088316AE
:1015D40003136B06031DFB2A83120317230A8400DB
:1015E4000008831603136C06031DFB2AF001F101A6
:1015F4006E2B83120317230884000008F000700880
:1016040083160313EB0083120317230A84000008D4
:1016140083160313EC00F301F40180307406F00028
:1016240080307002031D182B0230730203186C2BD8
:1016340083120317230A840000083B3A031D272B57
:101644000130F0000030F1006E2B831603136B0899
:10165400003A031D342B6C08003A031D342B01306F
:10166400F000352BF0017008031D682B7308F0009F
:101674007408F100F00DF10D70107008643E8400E0
:101684000008F20083120317230884000008F10005
:1016940072087106031D682B7308F0007408F100CA
:1016A400F00DF10D70106430F007700AF200230A97
:1016B40084000008F1007208840000087106031D0C
:1016C400682B0130F0000030F1006E2BF30A03198F
:0A16D400F40A0F2BF001F1010800E9
:1016DE00831203172308AC002408AD008A113424AA
:1016EE008A157008A3007108A40080307106F200FC
:1016FE00803026067202031D862B25087002031801
:10170E008D2BFF30F000FF30F100A02B803028062B
:10171E00F000803024067002031D972B2308270249
:10172E0003189E2B0130F0000030F100A02BF001C9
:04173E00F1010800AD
:101742008A1134268A150530F4000030F50003179B
:101752002308F0002408F1008A11E0208A1570089D
:101762000317A3007108A4000530F4000030F5004F
:101772002508F0002608F1008A11E0208A15700879
:101782000317A5007108A6000530B5000530B600A4
:101792008A110F238A150530B5000530B600CC300A
:1017A200B7008A11CD238A1505300317B50005301D
:1017B200B6004E30B7008A11CD238A1505300317C3
:1017C200B5000530B6002308B7008A11CD238A156B
:1017D20005300317B5000530B6002508B7008A1199
:1017E200CD238A1505300317B5000530B6008A11DE
:1017F2000F238A150530B5000530B600CC30B7008E
:101802008A11CD238A1505300317B5000530B600BD
:0C1812004830B7008A11CD238A15080069
:10181E00831203172708AC002808AD008A119826FA
:10182E008A1503172308B5002508B60003136F08A1
:0C183E000317B7008A1173228A150800F6
:10184A008A117C218A15D03083120317B5008A11B8
:10185A00BA228A15083083120317B5008A11BA22F0
:10186A008A158A1104248A15D13083120317B50008
:10187A008A11BA228A1583120317A601A701013019
:10188A002402F1000030031C013E2502F2008030E0
:10189A002706F000803072067002031D562C71086C
:1018AA0026020318672C0130B5008A115A218A15BD
:1018BA0003172308840070088000A30AA60A0319E4
:1018CA00A70A442CB5018A115A218A15031723083D
:0E18DA008400700880008A113B238A150800E4
:1018E8004C2D6E3083160313CB000030CC006E30C5
:1018F80083120317A3000030A400A501A60102303B
:10190800A7000030A8000130A9000030AA00B720C5
:10191800962D6F30CB000030CC006F308312031748
:10192800A3000030A400A501A6010230A7000030E2
:10193800A8000130A9000030AA00B720962DD230A7
:10194800CB00CC01D23083120317A3000030A400CF
:101958000130A5000030A6000230A7000030A80022
:101968000130A9000030AA00B720962DD330CB0053
:10197800CC01D33083120317A3000030A400013038
:10198800A5000030A6000230A7000030A8000130F2
:10199800A9000030AA00B720962DCB01CC018A11EE
:1019A800B7278A15023083120317A3000030A4005A
:1019B8000130A5000030A600BD21962D8030831689
:1019C80003135E06F000803045067002031DEE2CFE
:1019D80044085D020318F42C5D08C4005E08C500C5
:1019E8000A30CB000030CC00023083120317A3006A
:1019F8000030A4000130A5000030A6002822962D52
:101A080080305E06F000803045067002031D0E2D02
:101A180044085D020318142D4408DD004508DE0063
:101A28000B30CB000030CC00023083120317A30028
:101A38000030A4000130A5000030A6002822962D11
:101A48000230CB000030CC00440883120317A300F7
:101A580083160313450883120317A4008316031380
:101A68005D0883120317A500831603135E0883120B
:101A78000317A600A12302300317A3000030A40017
:101A88000130A5000030A6002822962D3421962D7D
:101A98000313003083164C06031D542D00304B06EB
:101AA8000319752C00304C06031D5C2D6E304B0657
:101AB80003198D2C00304C06031D642D6F304B0626
:101AC8000319A32C00304C06031D6C2DD2304B0695
:101AD8000319BA2C00304C06031D742DD3304B0665
:101AE8000319D12C00304C06031D7C2D02304B0607
:101AF8000319E22C00304C06031D842D0A304B06D6
:101B08000319042D00304C06031D8C2D0B304B0699
:101B18000319242D00304C06031D942D01304B066B
:061B280003194A2D08001C
:101B2E0083160313E801E9018A1134268A15700819
:101B3E00C4007108C50001300317A3000030A400D3
:101B4E000A30A5000030A6007008A7007108A80092
:101B5E000F24831244080317A30003134508031729
:101B6E00A40083160313440883120317A5008316DB
:101B7E000313450883120317A600831603135D088B
:101B8E0083120317A700831603135E08831203172D
:101B9E00A8006F2370080313C6007108C700013038
:101BAE000317A3000030A4000130A5000030A600EA
:101BBE008A11D3278A157008A300E2228312031319
:101BCE00700871040319EC2D342180304706F000A3
:101BDE0080307002031DF52D003046020318FC2DD7
:101BEE008316081083120814002E83160810831211
:101BFE0008108030F000803047067002031D092E59
:101C0E004608003C0318102E831688108312881481
:0C1C1E00142E8316881083128810080012
:101C2A00831203171C08F0001D08F100F00DF10DD6
:101C3A0070107008643EA20000301B06031D272E98
:101C4A006E301A060319322E00301B06031D2F2E82
:101C5A00D2301A060319322E4C2E220884000008AC
:101C6A00F000F00A2208840070088000220884002C
:101C7A0080300006F0008030183A7002031C4B2EA8
:101C8A00220884008001220A840080018A2E003002
:101C9A001B06031D522E6F301A0603195D2E0030E3
:101CAA001B06031D5A2ED3301A0603195D2E8A2EDF
:101CBA00220AF100710884000008F000F00A710895
:101CCA008400700880007108840080300006F000EB
:101CDA0080303C3A7002031C8A2E220884000008D5
:101CEA00F100710AF0002208840070088000803038
:101CFA007106F0008030183A7002031C872E220801
:101D0A0084008001220A840080011A08A3001B08AB
:101D1A00A4001C08A5001D08A6001E08A7001F088D
:0E1D2A00A8002008A9002108AA00B720080080
:101D38000030831603134C06031DA42E0A304B06ED
:101D4800031DA92EC430F200AB2EDD30F20072085C
:101D5800831203179E007208840005300002F00009
:101D68000030031C013E840A0002F100720884005E
:101D7800700880007108840A80001E08840000082A
:101D8800F100840A0008F20080307206F00080300A
:101D98007002031DD12E003071020318DA2E1E08BE
:101DA8008400843080000330840A80001A08A3006D
:101DB8001B08A4001C08A5001D08A600282208006E
:101DC800831203171A08AC001B08AD008A11BE2540
:101DD8008A15062F831203171A08A3001B08A400EC
:101DE8001C08A5001D08A6002822282F8312031707
:101DF8001A08A3001B08A4001C08A5001D08A600BB
:101E0800BD21282F0030831603134C06031D0E2F07
:101E180002304B060319EE2E00304C06031D162F18
:101E28000A304B060319EE2E00304C06031D1E2FF8
:101E38000B304B060319EE2E00304C06031D262FDF
:0A1E480000304B060319FA2E0800C3
:101E5200053083120317B5000530B6008A110F232F
:101E62008A150530B5000530B600CC30B7008A11AE
:101E7200CD238A1505300317B5000530B600BE30F4
:101E8200B7008A11CD238A1505300317B500053036
:101E9200B6008A11D2228A15700883160313E50050
:101EA200053083120317B5000530B6008A11D2221D
:101EB2008A15700883160313E40005308312031792
:101EC200B5000530B6008A11D2228A157008831631
:101ED2000313E700053083120317B5000530B6007F
:101EE2008A11D2228A15700883160313E600053080
:101EF20083120317B5000530B6008A110F238A1525
:101F0200831603136708F0000530F4008A113D229E
:101F12008A1503171A088400700880007108840A61
:101F22008000831603136608F0000530F4008A115E
:101F32003D228A1503171B0884007008800071086F
:061F4200840A8000080083
:101F48000030831603134C06031DAC2F0A304B06D2
:101F5800031DB12FC430F200B32FDD30F200720838
:101F6800831203179E007208840005300007F000F2
:101F7800840A00080318013EF10072088400700802
:101F880080007108840A80001E0884000008F1009F
:101F9800840A0008F20080307206F0008030033AAC
:101FA8007002031DD92F84307102031CE02F1E0814
:101FB80084008001840A80011A08A3001B08A40079
:0C1FC8001C08A5001D08A6002822080027
:101FD400643083120317A3000430A4000030A5006A
:041FE40025240800A8
:10200000831203171C08F0001D08F100F00DF10DFC
:1020100070107008643EA20000301B06031D1228D9
:102020006E301A0603191D2800301B06031D1A28DE
:10203000D2301A0603191D28382822088400000807
:10204000F000F00322088400700880002208840059
:1020500080300006F0008030003A70020318372804
:102060002208840017308000220A8400800178282A
:1020700000301B06031D3E286F301A06031949283D
:1020800000301B06031D4628D3301A0603194928C1
:102090007828220AF100710884000008F000F0039B
:1020A0007108840070088000710884008030000688
:1020B000F0008030003A700203187828220884006B
:1020C0000008F000F0032208840070088000220855
:1020D000840080300006F0008030003A700203185F
:1020E00075282208840017308000220A84008001AD
:1020F0001A08A3001B08A4001C08A5001D08A600C0
:102100001E08A7001F08A8002008A9002108AA008F
:0C2110008A150A12B7208A110A1608006E
:10211C0083160313861206120610861006118611FA
:10212C0083128612061286110611861006100A12E8
:10213C002C200A160A122C200A160A122C200A1617
:10214C008614061486160A1222200A1686120A1201
:10215C002C200A1686160A1222200A1686120A1239
:10216C002C200A1686160A1222200A1686120A1229
:10217C002C200A16061086160A1222200A1686121F
:10218C000A122C200A1686160A1222200A16861209
:10219C008610861586160A1222200A1686120A1234
:1021AC002C200A168611061486160A1222200A16EC
:1021BC008612061086160A1222200A1686120A1297
:1021CC002C200A1686160A1222200A1686120614CB
:1021DC0086160A1222200A1686120A122C200A16B9
:1021EC00061086160A1222200A1686128615061565
:1021FC008614061486160A1222200A1686120A1251
:0A220C002C200A1683166A1408003D
:102216005823831203139F01063083169F00143040
:1022260093000A12E7270A16FF30860083168601F6
:10223600403081000C3083128100A0308B00831661
:1022460088018E20013083120317BC000A12392040
:102256000A160C300317BC000A1239200A16013080
:102266000317B5000130B6002030B7000A127322FA
:102276000A16831287010A1259270A168A150A12A4
:10228600EA278A110A16C430831203179A00DD3032
:102296009B008A150A1229278A110A160230A30002
:1022A6000030A4000130A5000030A6008A150A12ED
:1022B60028228A110A168316E0308704E03083123A
:1022C6000705F1007108C100710842060319AE2A1C
:1022D6004108C200411F042A003083164C06031D24
:1022E60076296E304B060319812900304C06031DF2
:1022F6007E296F304B060319812997294B088312D3
:1023060003179A00831603134C08831203179B00C6
:102316009C019D0102309E0000309F000130A0000C
:102326000030A1000020032A00304C06031D9D2921
:10233600D2304B060319A82900304C06031DA529E7
:10234600D3304B060319A829C0294B08831203175B
:102356009A00831603134C08831203179B0001305F
:102366009C0000309D0002309E0000309F0001302E
:10237600A0000030A1000020032A00304C06031DF7
:10238600C6290A304B060319D12900304C06031D15
:10239600CE290B304B060319D129E12902308312CD
:1023A60003179A0000309B0001309C0000309D000E
:1023B6008A150A129C268A110A16032A0130CB02B4
:1023C600031CCC0380304C06F00080307002031DE5
:1023D600EE2900304B020318F4290230CB000030FE
:1023E600CC000230831203179A0000309B000130A4
:1023F6009C0000309D008A150A12E4268A110A16EE
:10240600A12A83120313C11EA12A003083164C068B
:10241600031D0F2A6E304B0603191A2A00304C068C
:10242600031D172A6F304B0603191A2A342A4B0844
:10243600831203179A00831603134C08831203179B
:102446009B009C019D0102309E0000309F000130E0
:10245600A0000030A1008A150A1215268A110A1654
:10246600A12A00304C06031D3A2AD2304B06031926
:10247600452A00304C06031D422AD3304B06031969
:10248600452A612A4B08831203179A008316031301
:102496004C08831203179B0001309C0000309D00FE
:1024A60002309E0000309F000130A0000030A100E5
:1024B6008A150A1215268A110A16A12A00304C0618
:1024C600031D672A0A304B060319722A00304C0690
:1024D600031D6F2A0B304B060319722A822A02301B
:1024E600831203179A0000309B0001309C000030D5
:1024F6009D008A150A12A4278A110A16A12ACB0A58
:102506000319CC0A80304C06F00080307002031D9F
:102516008E2A03304B02031C922ACB01CC010230D7
:10252600831203179A0000309B0001309C00003094
:102536009D008A150A12E4268A110A1683120313CD
:10254600C11FAE2A410803179A009B018A150A1279
:1025560074248A110A164E30831603136902031D6A
:10256600B62A20306802031CBD2A8A150A1297254E
:082576008A110A165E29BE2A33
:1026B00020308400403083120313F000C43003172D
:1026C0009800123099000A12F1270A16A0308400EF
:1026D00022308312F0000430031798001330990061
:1026E0000A12F1270A16603084000F308312F000BE
:1026F000483003179800133099000A12F1270A1680
:10270000C230840022308312F00026300317980074
:10271000133099000A12F1270A166F308400013035
:102720008312F000033003179800003099000A125A
:06273000F1270A16080063
:0200060056346E
:1025880053347434613472347434653464342134AB
:0225980000340D
:10259A0053344134563445344434203420342034BE
:1025AA0020342034203420342034203420340034A1
:0425BA003A3400347B
:0C25BE005234653470342E342034003464
:0225CA000034DB
:0225CC000034D9
:0225CE00FF34D8
:0425D000003400349F
:0425D400003400349B
:0C25D8004C3469346D342034203400345D
:0425E400203400346B
:0225E800FF34BE
:0225EA00FF34BC
:0225EC00FF34BA
:0225EE00FF34B8
:0425F000003400347F
:1025F4002B343034303430342E34303430343034BE
:04260400303400343A
:102608003034313432343334343435343634373486
:10261800383439344134423443344434453446340C
:0226280000347C
:10262A002034203420342034203420342034203400
:10263A0020342034203420342034203420342034F0
:02264A0000345A
:04264C000134003421
:04265000003400341E
:0A2654006D3469346E343D340034F7
:04265E000034003410
:1026620020342034203420342034203420340034E8
:1026720020342034203420342034203420340034D8
:0426820000340034EC
:0A2686006D34613478343D340034C3
:022690002934EB
:0426920001340034DB
:022696003934D5
:0826980000340034003400346A
:0226A0003B34C9
:0426A20000340034CC
:0426A60000340034C8
:0426AA003C34003488
:02400E004A2F37
:00000001FF
